{
  "contractName": "FunctionsAndErrorHandling",
  "abi": [
    {
      "anonymous": false,
      "inputs": [
        {
          "indexed": false,
          "internalType": "uint256",
          "name": "result",
          "type": "uint256"
        }
      ],
      "name": "ValueAsserted",
      "type": "event"
    },
    {
      "anonymous": false,
      "inputs": [
        {
          "indexed": false,
          "internalType": "bool",
          "name": "boolean",
          "type": "bool"
        },
        {
          "indexed": false,
          "internalType": "uint256",
          "name": "value",
          "type": "uint256"
        }
      ],
      "name": "ValueChecked1",
      "type": "event"
    },
    {
      "anonymous": false,
      "inputs": [
        {
          "indexed": false,
          "internalType": "bool",
          "name": "isOdd",
          "type": "bool"
        },
        {
          "indexed": false,
          "internalType": "uint256",
          "name": "value",
          "type": "uint256"
        }
      ],
      "name": "ValueChecked2",
      "type": "event"
    },
    {
      "inputs": [
        {
          "internalType": "uint256",
          "name": "_value1",
          "type": "uint256"
        }
      ],
      "name": "testRequire",
      "outputs": [
        {
          "internalType": "uint256",
          "name": "",
          "type": "uint256"
        }
      ],
      "stateMutability": "nonpayable",
      "type": "function"
    },
    {
      "inputs": [
        {
          "internalType": "uint256",
          "name": "_value1",
          "type": "uint256"
        }
      ],
      "name": "testRevert",
      "outputs": [],
      "stateMutability": "nonpayable",
      "type": "function"
    },
    {
      "inputs": [
        {
          "internalType": "uint256",
          "name": "_value1",
          "type": "uint256"
        },
        {
          "internalType": "uint256",
          "name": "_value2",
          "type": "uint256"
        }
      ],
      "name": "testAssert",
      "outputs": [
        {
          "internalType": "uint256",
          "name": "",
          "type": "uint256"
        }
      ],
      "stateMutability": "nonpayable",
      "type": "function"
    }
  ],
  "bytecode": "0x608060405234801561001057600080fd5b5061053c806100206000396000f3fe608060405234801561001057600080fd5b50600436106100415760003560e01c80632098776714610046578063420df3a314610062578063b8bd717f14610092575b600080fd5b610060600480360381019061005b9190610282565b6100c2565b005b61007c600480360381019061007791906102af565b61014e565b60405161008991906102fe565b60405180910390f35b6100ac60048036038101906100a79190610282565b6101c1565b6040516100b991906102fe565b60405180910390f35b60006002826100d19190610348565b1461014b577fac4cba351746faec8b2cb3fa6620c2f67aa66cbdfcaf019d23cb48bc6a59382a600182604051610108929190610394565b60405180910390a16040517f08c379a00000000000000000000000000000000000000000000000000000000081526004016101429061041a565b60405180910390fd5b50565b600080828461015d9190610348565b0361016b5761016a61043a565b5b7f1423d657114e6eff845d5c82a093187694289ce2ece5472e5a34f87e28c0839982846101989190610469565b6040516101a591906102fe565b60405180910390a181836101b99190610469565b905092915050565b6000808211610205576040517f08c379a00000000000000000000000000000000000000000000000000000000081526004016101fc906104e6565b60405180910390fd5b7ff661999278eebfbcddadd07206945c4b3ee402f92566ea6b9357cdf29e5cf826600183604051610237929190610394565b60405180910390a1819050919050565b600080fd5b6000819050919050565b61025f8161024c565b811461026a57600080fd5b50565b60008135905061027c81610256565b92915050565b60006020828403121561029857610297610247565b5b60006102a68482850161026d565b91505092915050565b600080604083850312156102c6576102c5610247565b5b60006102d48582860161026d565b92505060206102e58582860161026d565b9150509250929050565b6102f88161024c565b82525050565b600060208201905061031360008301846102ef565b92915050565b7f4e487b7100000000000000000000000000000000000000000000000000000000600052601260045260246000fd5b60006103538261024c565b915061035e8361024c565b92508261036e5761036d610319565b5b828206905092915050565b60008115159050919050565b61038e81610379565b82525050565b60006040820190506103a96000830185610385565b6103b660208301846102ef565b9392505050565b600082825260208201905092915050565b7f4f6464206e756d62657200000000000000000000000000000000000000000000600082015250565b6000610404600a836103bd565b915061040f826103ce565b602082019050919050565b60006020820190508181036000830152610433816103f7565b9050919050565b7f4e487b7100000000000000000000000000000000000000000000000000000000600052600160045260246000fd5b60006104748261024c565b915061047f8361024c565b92508261048f5761048e610319565b5b828204905092915050565b7f56616c7565206d7573742062652067726561746572207468616e203000000000600082015250565b60006104d0601c836103bd565b91506104db8261049a565b602082019050919050565b600060208201905081810360008301526104ff816104c3565b905091905056fea2646970667358221220b980add78cf9a4e162df570206e93ce821de4b9f1804e6fdd9fba9de1832d90864736f6c63430008110033",
  "immutableReferences": {},
  "source": "// SPDX-License-Identifier: MIT\r\n// Compiler version must be greater than or equal to 0.8.17 and less than 0.9.0\r\npragma solidity ^0.8.17;\r\n\r\ncontract FunctionsAndErrorHandling {\r\n\r\n    event ValueChecked1(bool boolean, uint value);\r\n    event ValueChecked2(bool isOdd, uint value);\r\n    event ValueAsserted(uint result);\r\n\r\n    // Function for testing error handling with a require statement\r\n    function testRequire(uint _value1) public  returns (uint) {\r\n        require(_value1 > 0, \"Value must be greater than 0\");\r\n        emit ValueChecked1(true, _value1); // Log that the require condition was checked\r\n        return _value1;\r\n    }\r\n\r\n    // Function for testing error handling with revert and require statements\r\n    function testRevert(uint _value1) public  {\r\n        if (_value1 % 2 != 0) {\r\n            emit ValueChecked2(true, _value1); // Log that the value is odd\r\n            revert(\"Odd number\");\r\n        }\r\n    }\r\n\r\n    // Function for testing error handling with assert statement\r\n    function testAssert(uint _value1, uint _value2) public  returns (uint) {\r\n        assert(_value1 % _value2 != 0);\r\n        emit ValueAsserted(_value1 / _value2); // Log the result of the assert\r\n        return _value1 / _value2;\r\n    }\r\n}\r\n",
  "sourcePath": "D:\\My Files\\Desktop\\Metacrafters-Project\\Eth+Avaxproof\\contracts\\metacrafters.sol",
  "compiler": {
    "name": "solc",
    "version": "0.8.17+commit.8df45f5f.Emscripten.clang"
  },
  "schemaVersion": "3.4.16",
  "updatedAt": "2023-09-13T10:29:08.247Z",
  "networkType": "ethereum",
  "devdoc": {
    "kind": "dev",
    "methods": {},
    "version": 1
  },
  "userdoc": {
    "kind": "user",
    "methods": {},
    "version": 1
  }
}